:020000040800F2
:1000000010090020D50000084D1900084F190008FC
:1000100000000000000000000000000000000000E0
:10002000000000000000000000000000531900085C
:1000300000000000000000005519000857190008D2
:10004000E7000008E7000008E7000008E7000008F4
:10005000E7000008E7000008E7000008E7000008E4
:10006000E7000008E7000008E7000008E7000008D4
:10007000E7000008E7000008E7000008E7000008C4
:10008000E7000008E700000800000000E7000008A3
:10009000E7000008E7000008E7000008E7000008A4
:1000A000E7000008E7000008E7000008E700000894
:1000B000E700000800000000E70000080000000062
:1000C0000348854602F0B8FC00480047C317000803
:1000D000100900200448804704480047FEE7FEE777
:1000E000FEE7FEE7FEE7FEE733130008C100000865
:1000F00010B50446B648844207D10121401500F0EE
:1001000098FD0021601500F094FD10BD10B500228F
:10011000C268B04B1A400C7964030B6823438C68A7
:100120002343CC6823430C6923434C6923431A437C
:10013000C26010BD0021016001718160C160016178
:1001400041617047002904D0826801231A4382600C
:1001500003E0826802231A4382607047016170479E
:10016000002A03D003690B43036102E003698B4358
:1001700003617047002905D0C2680123DB031A43DD
:10018000C26004E0C2680123DB039A43C260704787
:10019000002905D0C26801239B031A43C26004E012
:1001A000C26801239B039A43C2607047002905D0AF
:1001B000C2680123DB051A43C26004E0C268012360
:1001C000DB059A43C26070470B0413430362704718
:1001D00010B50A460021C1681F24A4060B46A3439C
:1001E00019460B4613431946C16010BD002905D0BE
:1001F000C26801239B051A43C26004E0C268012360
:100200009B059A43C2607047002807D072498968ED
:100210000122D2051143704A916006E06E49896857
:100220000122D20591436C4A91607047002807D0A3
:1002300069498968012292051143674A916006E085
:1002400065498968012292059143634A916070472C
:10025000002807D0604989680122120611435E4ACE
:10026000916006E05C4989680122120691435A4A6E
:100270009160704710B50B460021846A1C4384626C
:1002800000BF0C4614432146416110BD002905D032
:10029000C26801235B031A43C26004E0C268012301
:1002A0005B039A43C2607047002905D0C2680123EE
:1002B0001B041A43C26004E0C26801231B049A4372
:1002C000C2607047002905D0C26801231B031A438E
:1002D000C26004E0C26801231B039A43C2607047F6
:1002E00030B501460020002200238C680125ED076F
:1002F0002C438C6000BF8C68E30FDB07521C0F247B
:100300002403A24201D0002BF5D18C68E40FE4074E
:10031000002C01D1086C00E0002030BD8168102263
:1003200011438160704781680422114381607047E6
:100330000146086C80B27047002904D0C2680123CE
:100340001A43C26003E0C26852085200C26070479C
:10035000C26802239A43C260C2680A43C2607047FF
:10036000002A03D043680B43436002E043688B4399
:100370004360704730B50246002000230124240664
:100380000C40002C05D0946801252D06AC43234673
:1003900000E013681C460C40002C01D0012000E056
:1003A000002030BD0160704710B5024600200023D8
:1003B00054680C40234614680C40002C03D0002BDA
:1003C00001D0012000E0002010BD01607047000056
:1003D0000024014003D2FFFF0027014010B504466E
:1003E0000920C006844209D10121480400F013FC11
:1003F00000210120400400F00EFC3CE074488442DF
:1004000008D10121000200F006FC0021200200F0CA
:1004100002FC30E06F48844208D10121000200F064
:10042000FAFB0021200200F0F6FB24E06A48844237
:1004300009D10121080500F0EEFB00210120000593
:1004400000F0E9FB17E06548844208D10121400231
:1004500000F0E1FB0021600200F0DDFB0BE06048F2
:10046000844208D10121880500F0D5FB002101203C
:10047000800500F0D0FB10BDF0B50A460021002336
:10048000002400BF3DE001258D402B4615681D402E
:100490002C469C4234D11579012D02D01579022DBC
:1004A00016D185684F000326BE40B5438560557957
:1004B0004E00B540866835438560858801268E40AC
:1004C000B5438580858896798E40B6B23543858060
:1004D00005684F000326BE40B543056015794E0000
:1004E000B540066835430560C5684F000326BE4029
:1004F000B543C560D5794E00B540C6683543C56083
:10050000491C1029BFD3F0BD36490160002101719B
:100510000121417100218171C171704708B501222B
:1005200012040092009A0A430092009AC261C161CB
:10053000009AC261C2690092C269009208BD024677
:100540000020138A0B40002B01D0012000E0002086
:1005500070470146088A704702460020938A0B4084
:10056000002B01D0012000E0002070470146888A5E
:1005700070478161704701857047002A01D0816111
:1005800000E00185704781827047F0B500230024A8
:100590004D07EE0E1546B5402B46CD10AE00054674
:1005A0002035AD594E07F70E0F26BE40B543CE108D
:1005B000B60007462037BD51CD10AE003D46AD59BF
:1005C0001D432C46CD10AD003E467451F0BD0000D9
:1005D0000004004800080048000C004800100048D3
:1005E00000140048FFFF0000FE4800680121084396
:1005F000FC49086008464068FB490840F9494860E2
:1006000008460068F9490840F6490860084600684D
:10061000012189048843F3490860084640683F2166
:1006200009048843EF4948600846C06A0009000190
:10063000C8620846006BFF2154318843E9490863CA
:100640000846406B400840004863002088607047BF
:100650000021E44A917011468870704710B5024637
:100660000021002300205111002902D1DD4C236814
:100670000BE0012902D1DB4C236A06E0022902D1FA
:10068000D84C636A01E0D74C636BD106C90E0124D4
:100690008C401C40002C01D0012000E0002010BD47
:1006A00038B5002000900024002500BF1120FFF77E
:1006B000D5FF05460098401C0090052109030098CD
:1006C000884201D0002DF1D01120FFF7C7FF00288C
:1006D00001D0012400E00024204638BD014600205E
:1006E000C04A1068F82302469A431046CA001043D5
:1006F000BC4A10607047002806D0BA490968012238
:100700001143B84A116005E0B64909684908490033
:10071000B44A1160704701460020B24A506BF8237A
:1007200002469A431046CA001043AE4A50637047CF
:10073000002806D0AB49496B01221143A94A5163F5
:1007400005E0A849496B49084900A64A516370472A
:10075000002806D0A349496B04229143A14A516362
:1007600005E0A049496B042211439E4A516370473A
:100770009C49096A490849009A4A11621146096A66
:1007800004229143974A11621146096A014311629A
:1007900070479449096A18229143924A116211469E
:1007A000096A014311627047002806D08D49496AE1
:1007B000012211438B4A516205E08A49496A49087E
:1007C0004900884A51627047864A52687B23DB039E
:1007D0009A43844B5A601A46526803460B431A43A5
:1007E000804B5A607047002807D07E490968012273
:1007F000120611437B4A116006E07A49096801221A
:1008000012069143774A11607047002807D0754956
:10081000496B012212041143724A516306E0714987
:10082000496B0122120491436E4A5163704701469D
:1008300000206C4AD06A0009000102460A431046B3
:10084000684AD0627047002807D0664909680122CB
:10085000D2041143634A116006E06249096801222B
:10086000D20491435F4A11607047024600205D4BFD
:1008700058680002000A13060B431843594B58608E
:10088000704701460020574A5068800880000246A1
:100890000A431046534A50607047524840680C2142
:1008A00008407047014600204E4A5068F023024637
:1008B0009A43104602460A4310464A4A506070471F
:1008C00001460020474A506807231B0202469A430C
:1008D000104602460A431046424A5060704741495A
:1008E00049680122920391433E4A5160114649688A
:1008F00082B211433B4A51601146096B92159143F4
:10090000384A11631146096B020C1143354A1163D1
:1009100070473449096B40229143324A11631146B2
:10092000096B0143116370472E49096B10229143F3
:100930002C4A11631146096B014311637047002172
:10094000010F012906D1274A126B92089200254B0C
:100950001A6306E0234A126B03231B049A43214BBC
:100960001A63204A126B02431E4B1A6370471D49DB
:10097000096B802291431B4A11631146096B0143A5
:1009800011637047FEB50446002500260020029042
:10099000019000900027134840680C21084005464C
:1009A000002D06D0042D07D0082D08D00C2D37D1EE
:1009B00033E00F48206036E00D48206033E00948FE
:1009C00040680F2189040840064606484068032114
:1009D000C90308400290B00C861C029800280ED172
:1009E000044809E0001002400CB8FF08FFFFF6FEC3
:1009F00000127A0000093D00374647430BE0AD483E
:100A0000C06A0007000F401C0190AB48019901F03B
:100A10007BFC70430746276005E0A848206002E0A1
:100A2000A548206000BF00BFA2484068F0210840F0
:100A300005462D09A248405D009021680098C140FC
:100A400061609C48406807210902084005462D0A5C
:100A50009B48405D009061680098C140A160954846
:100A6000006BFF2101310840884202D09548E060C8
:100A70000DE090484068012189030840884203D076
:100A8000A0684008E06002E0A0688008E060894853
:100A9000006B40210840402802D08B48206102E0D2
:100AA0000120C00320618348006B102108401028FA
:100AB00002D08148606101E0206860617D48006B80
:100AC0008007800F002802D1A068A06119E0794852
:100AD000006B8007800F012802D12068A06110E020
:100AE0007448006B8007800F022802D18003A06148
:100AF00007E07048006B8007800F032801D16E4823
:100B0000A0616C48006B032109040840002802D151
:100B1000A068E06120E06748006B032109040840F9
:100B200001210904884202D12068E06114E0614893
:100B3000006B03210904084001214904884202D1C5
:100B40008010E06108E05B48006B03210904084065
:100B5000884201D15848E0615648006B8021084026
:100B6000802802D05548206200E02762FEBD51492E
:100B7000096A01434F4A11627047002807D04D4966
:100B8000096A0122D20311434A4A116206E0494927
:100B9000096A0122D2039143464A11627047002834
:100BA00007D04449096A012212041143414A1162E3
:100BB00006E04049096A0122120491433D4A11624C
:100BC0007047002905D03B4A52690243394B5A61AC
:100BD00004E0384A52698243364B5A617047002913
:100BE00005D0344A92690243324B9A6104E0314A9B
:100BF000926982432F4B9A617047002905D02D4A94
:100C0000D26902432B4BDA6104E02A4AD26982435B
:100C1000284BDA617047002905D0264A926A0243C0
:100C2000244B9A6204E0234A926A8243214B9A62DF
:100C30007047002905D01F4AD26802431D4BDA6075
:100C400004E01C4AD26882431A4BDA6070470029DC
:100C500005D0184A12690243164B1A6104E0154A7E
:100C600012698243134B1A617047002905D0114A5B
:100C7000527A02430F4B5A7204E00E4A527A824370
:100C80000C4B5A7270470B48406A01210906084311
:100C900008494862704701460020064A92680A40A7
:100CA000002A01D0012000E000207047014988722D
:100CB000704700000010024000127A00006CDC0255
:100CC00000000020809FD5001280000010B504466F
:100CD000F848844209D101218803FFF7AAFF0021C7
:100CE00001208003FFF7A5FF25E0F348844209D1E6
:100CF00001214804FFF7ABFF002101204004FFF76A
:100D0000A6FF18E0ED48844209D101218804FFF7CD
:100D10009EFF002101208004FFF799FF0BE0E848C7
:100D2000844208D10121C804FFF791FF002101206E
:100D3000C004FFF78CFF10BDF0B58BB004460D4624
:100D4000002700200A90002620684008400020600C
:100D5000666803210903304688430646A8680643AF
:100D600066602668D7480640E968686808432969CC
:100D7000084306432660A6680321090230468843DB
:100D8000064668690643A66001A8FFF7FBFDC9484F
:100D9000844202D107980A9007E0C748844202D1F2
:100DA00008980A9001E003980A9020680121C9037D
:100DB000084000280CD029680A9A500001F0A4FAD3
:100DC000074629680A9A500001F09EFA0E4609E08B
:100DD00029680A9801F098FA074629680A9801F0EC
:100DE00093FA0E4628684008B04200D87F1C20685D
:100DF0000121C9030840002806D03807460F3846AD
:100E0000B149084030430746A7810BB0F0BD4B21E4
:100E1000C9010160002141608160C1600C21016154
:100E200000214161704710B5002242680F2424025E
:100E30001346A3431A464C680B6823438C6823432C
:100E4000CC6823431A43426010BD00210160416019
:100E50008160C1607047002904D0026801231A43F1
:100E6000026003E002685208520002607047002AE4
:100E700003D003680B43036002E003688B43036005
:100E80007047002905D002680123DB031A43026082
:100E900004E002680123DB039A43026070470029E3
:100EA00005D082680123DB021A43826004E0826875
:100EB0000123DB029A4382607047002905D0426813
:100EC0000123DB041A43426004E042680123DB048F
:100ED0009A4342607047002905D0426801239B0471
:100EE0001A43426004E0426801239B049A43426033
:100EF0007047002A03D043680B43436002E0436815
:100F00008B4343607047002905D042680123DB030F
:100F10001A43426004E042680123DB039A434260C3
:100F20007047002905D042680123DB051A4342605F
:100F300004E042680123DB059A434260704742693E
:100F4000120E1206426142690A4342617047028AE8
:100F5000FF231B021A400282028A0A430282704760
:100F6000002904D0026802231A43026003E00268E9
:100F700002239A4302607047826803231B059A4349
:100F8000826082680A4382607047002905D0426807
:100F900001231B051A43426004E0426801231B053C
:100FA0009A4342607047426803235B059A4342605C
:100FB00042680A4342607047CA05D20D02857047F5
:100FC0000146888CC005C00D704742681202120AA3
:100FD000426042680B061A4342607047002905D000
:100FE000026801235B031A43026004E002680123E4
:100FF0005B039A430260704702680123DB029A4355
:10100000026002680A4302607047426810239A43F4
:10101000426042680A4342607047426820239A4314
:10102000426042680A4342607047002905D0426826
:1010300001239B031A43426004E0426801239B039F
:101040009A4342607047002904D0826808231A43FB
:10105000826003E0826808239A4382607047028AB4
:10106000D2B20282028A0B021A430282704700291E
:1010700004D0826820231A43826003E08268202320
:101080009A4382607047002904D0826810231A4373
:10109000826003E0826810239A438260704782680E
:1010A00007235B049A43826082684B041A43826080
:1010B00070470000003801400044004000480040F4
:1010C000004C0040F3E9FFFFF0FF0000426912020C
:1010D000120A426142690B061A43426170478268F4
:1010E00004239A43826082680A4382607047002921
:1010F00004D0826802231A43826003E082680223DC
:101100009A4382607047002905D0826801239B03BF
:101110001A43826004E0826801239B039A43826041
:10112000704782680123DB039A43826082680A4326
:101130008260704702681F235B059A430260026861
:101140004B051A430260704702681F231B049A4331
:10115000026002680B041A4302607047002A03D041
:1011600083680B43836002E083688B43836070472E
:10117000826801235B039A43826082680A4382602B
:101180007047F8B50346002400260096002500208D
:1011900018460E04340ECEB200960127009EB740CA
:1011A0003D46022C01D1001D02E0032C00D1083085
:1011B000002A03D006682E43066002E00668AE43AC
:1011C0000660F8BD002A03D0038B0B43038302E0C3
:1011D000038B8B4303837047826801231B039A436D
:1011E000826082680A438260704702460020D369A9
:1011F0000B40002B01D0012000E00020704701626D
:10120000704770B502460B460024002100250020DF
:101210001E04350ED9B201268E403146012D02D171
:101220001668314006E0022D02D15668314001E0D7
:10123000966831401C0C0126A6403446D6693440DD
:10124000002903D0002C01D0012000E0002070BD57
:1012500010B5002300220B0C01249C4022460262A0
:1012600010BD00000CB5002001900090734800688C
:101270000121090408437149086000BF6F480068F4
:1012800001214904084000900198401C01900098F9
:10129000002804D10521090301988842EED167484E
:1012A0000068012149040840002802D00120009074
:1012B00001E0002000900098012839D111206049F8
:1012C00008605E4840685D4948600846406848607C
:1012D000084640687F21C90388435849486008464A
:1012E00040681121090408435449486008460068D1
:1012F0000121090608435149086000BF4F480068B2
:101300000121490608400028F8D04C484068800870
:1013100080004A494860084640680221084347491E
:10132000486000BF454840680C2108400828F9D1B2
:101330000CBD10B541480068012108433F490860D1
:10134000084640683F4908403C49486008460068F4
:101350003D49084039490860084600680121890470
:10136000884336490860084640683F21090488439D
:10137000324948600846C06A00090001C862084650
:10138000006BFF21543188432C4908630846406BA9
:1013900040084000486300208860FFF763FF10BDED
:1013A000F8B50025002400260027244840680C21B9
:1013B00008400546002D04D0042D06D0082D2AD162
:1013C00007E022482249086029E0204820490860B7
:1013D00025E01A4840680F21890408400446174850
:1013E00040680321C90308400646A00C841C002E57
:1013F00004D118486043164908600BE00F48C06AE2
:101400000007000F471C3946104800F07DFF60437D
:101410000F49086003E00D480D49086000BF00BF98
:1014200006484068F021084000090B490D5C084857
:101430000068E84006490860F8BD0000001002405E
:10144000002002400CB8FFF8FFFFF6FE00127A0001
:101450001000002000093D001400002000B589B0F4
:1014600001214804FFF7ADFB01218803FFF7B7FB1B
:1014700001220921C806FFF788F801220A21092064
:10148000C006FFF782F8032040020790022108A857
:101490000170002181700121C1700321417007A9F1
:1014A0000920C006FEF7E8FF4B20C0010190002094
:1014B00002900390049006900C20059001A90E481C
:1014C000FFF73AFC40210C48FFF799FE01210A483A
:1014D000FFF7C1FC09B000BD70B504460D46E1B28E
:1014E0000548FFF769FD00BF40210348FFF77DFE77
:1014F0000028F9D0204670BD0038014010B500BF6B
:101500007D21C9005448006800F0FEFE0446601EBC
:101510005249884201D901200CE0601E50494861BF
:101520000321081F00F061F800204D498861072061
:10153000086100200028E3D110BD4A49088000BF9F
:10154000484909880029FBD170470146002049E03D
:10155000421CD0B2421CD0B2421CD0B2421CD0B20B
:10156000421CD0B2421CD0B2421CD0B2421CD0B2FB
:10157000421CD0B2421CD0B2421CD0B2421CD0B2EB
:10158000421CD0B2421CD0B2421CD0B2421CD0B2DB
:10159000421CD0B2421CD0B2421CD0B2421CD0B2CB
:1015A000421CD0B2421CD0B2421CD0B2421CD0B2BB
:1015B000421CD0B2421CD0B2421CD0B2421CD0B2AB
:1015C000421CD0B2421CD0B2421CD0B2421CD0B29B
:1015D000421CD0B2421CD0B2421CD0B2421CD0B28B
:1015E0004A1E91B20029B3DC704710B5002819DA01
:1015F0001D4A03071B0F083B9B089B00D25883071B
:10160000DC0EFF23A3409A438B071B0E8407E40ED6
:10161000A3401A43144B0407240F083CA408A40059
:101620001A5118E0114A03231B02D21883089B00A9
:10163000D2588307DC0EFF23A3409A438B071B0E6F
:101640008407E40EA3401A43084B032424021B1909
:101650008408A4001A5110BD10000020FFFFFF00F5
:1016600000E000E0400000201CED00E000E100E0B0
:101670001CB501218804FFF7A4FA80200090032103
:101680006846417101210171817169464048FEF748
:10169000F3FEFF20013000900321684641710121D3
:1016A0000171817169463A48FEF7E6FE1CBD70B5CE
:1016B0000446264600251BE080203549203108815C
:1016C0003040002803D1FF200130088103E0FF20D3
:1016D00001302F4988617006060E0120FFF735FFA3
:1016E00080202B4988610120FFF72FFF681CC5B2BD
:1016F000082DE1DB80202649203108810120FFF7F9
:1017000024FFFF200130224988610120FFF71DFFDF
:1017100080201F4988610120FFF717FF80201C49A6
:10172000203108810120FFF710FF70BD10B5FF20A8
:101730000130174988610120FFF707FF8020144915
:1017400088610120FFF701FFFF200130104920319F
:1017500008810320FFF7F9FE80200D492031088120
:101760007820FFF7A4FF10BD10B5FF200130084915
:10177000203108810120FFF7E8FE802004498861BC
:101780000320FFF7E2FEFF2001300149886110BD10
:10179000000400481CB501214804FFF712FA02209A
:1017A0000090032168464171012101718171C1716D
:1017B00069460920C006FEF75FFE80204249088185
:1017C0001CBD88B0002007900027FFF797FEFFF7A9
:1017D00045FEFFF74DFF00F06DFAFFF7DBFF00F06D
:1017E000ADFA3A483A49086000F050FA00F006F9BC
:1017F0007D20C000FFF7A1FE00F0E9F863E0354866
:10180000FEF796FD0446204600F096FE0546324A55
:10181000324B00F01DFE0191009000F0AFFE0790EA
:101820002FA001F07BF93648079900F095FD019053
:1018300000F090FE05462A460B4632A102A801F0B0
:101840007DF93248844203DD80201F4920398861B8
:1018500002232F4A0021084600F049F902232D4AAD
:101860001946002000F043F902232B4A194638207C
:1018700000F03DF9022302AA1946402000F037F992
:10188000002707E0FAB239011831C8B2022100F08E
:101890009FF97F1C022FF5D300F054FA21461FA0B8
:1018A00001F03CF91648079900F056FD019000F050
:1018B00051FE05462A460B461EA001F02FF97D2059
:1018C000C000FFF73AFE9AE720040048973C000862
:1018D00024000020002401406666666666664A3F72
:1018E0000D0A20D5E2CAC7D2BBB8F6BFD5C6F8D616
:1018F000CAC1BFBCECB2E2CFB5CDB3200D0A000027
:101900000000C842252E316600000000B80B000020
:1019100029000020390000203D0000205468652087
:1019200054656D705F56616C756520697320256420
:10193000200D0A00546865204151495F2056616CB2
:101940007565206973202566200D0A00704700BF69
:10195000FEE77047704705480088002804D0034818
:101960000088401E014908807047000040000020A8
:1019700010B50446FFF7DAFE0020FFF798FE204678
:10198000FFF795FEFFF7F0FE10BD10B50446FFF718
:10199000CDFE4020FFF78BFE2046FFF788FEFFF7C5
:1019A000E3FE10BD10B50446211110221143084674
:1019B000FFF7DEFF2007000FFFF7DAFF10BD10B5BD
:1019C00004462146B031C8B2FFF7D2FF10BD70B552
:1019D000002410E02046FFF7F2FF0020FFF7E2FFAF
:1019E000002504E00020FFF7D0FF681CC5B2802D61
:1019F000F8DB601CC4B2082CECDB70BD70B50024B1
:101A000010E02046FFF7DBFF0020FFF7CBFF0025AB
:101A100004E0FF20FFF7B9FF681CC5B2802DF8DB9A
:101A2000601CC4B2082CECDB70BD70B50446002508
:101A300011E02846FFF7C3FF0020FFF7B3FF0026A1
:101A400005E02078641CFFF7A0FF701CC6B2802E52
:101A5000F7DB681CC5B2082DEBDB70BDF8B504469A
:101A6000002514E02846FFF7AAFF0020FFF79AFFA1
:101A7000002608E02778641CF843C7B23846FFF711
:101A800084FF701CC6B2802EF4DB681CC5B2082D22
:101A9000E8DBF8BD10B58D20FFF76AFF1420FFF7D3
:101AA00067FFAF20FFF764FF10BD10B58D20FFF773
:101AB0005FFF1020FFF75CFFAE20FFF759FF10BD5E
:101AC00070B504460D462946B031C8B2FFF750FF45
:101AD000F0212140091108461030FFF749FF210786
:101AE000090F012211430846FFF742FF70BDFFB501
:101AF00081B0064617460020009000240025049877
:101B0000012802D0022860D125E020E0785D20384D
:101B1000C0B200907E2E04DD00260298401CC0B2A8
:101B2000029030460299FFF7CBFF002409E006221D
:101B3000009951435B4A8918085DFFF726FF601C36
:101B4000C4B2062CF3DBB01DC6B2681CC5B2785D0A
:101B50000028DBD139E034E0785D2038C0B2009055
:101B6000782E04DD00260298401CC0B20290304658
:101B70000299FFF7A5FF002408E00099090109195F
:101B8000494A505CFFF701FF601CC4B2082CF4DB2B
:101B90000298401CC1B23046FFF792FF002409E0D2
:101BA00000990901091908313F4A505CFFF7EDFE21
:101BB000601CC4B2082CF3DB30460830C6B2681C87
:101BC000C5B2785D0028C7D100BF00BF05B0F0BD29
:101BD000F7B50E46174600247D0131460098FFF701
:101BE0006FFF00BF06E03149485DFFF7CEFE6D1C78
:101BF000601CC4B2102CF6DB701CC1B20098FFF759
:101C00005FFF002406E02949485DFFF7BEFE6D1C1A
:101C1000601CC4B2102CF6DBFEBDFFB583B00646D7
:101C20000F461C46002002902046E117490F091874
:101C3000C910C900611A05D1E117490F09184905F2
:101C40000D0E06E02046E117490F0918C910491C7E
:101C5000CDB23D4616E029463046FFF731FF0196EA
:101C60000AE002994A1C02920C9A505CFFF78DFE22
:101C70000198401CC0B20190059901988842F0DBA0
:101C8000681CC5B2A542E6DB07B0F0BD10B5002464
:101C900005E00749085DFFF76BFE601CC4B2192C14
:101CA000F7DB10BD663400088E36000842000020C5
:101CB0007E3C000800B589B001214804FEF781FF91
:101CC00001214802FEF78BFF01200790032108A89D
:101CD00001700021C17007A90920C006FEF7CCFBE6
:101CE00001A8FEF727FA0020019001216846017241
:101CF0000020039005900420069001A90D48FEF7EE
:101D000005FA052201210B48FEF7B4FA0948FEF74F
:101D1000E7FA01210748FEF715FA00BF0649054812
:101D2000FEF728FB0028F9D00248FEF7FCFA09B0BC
:101D300000BD0000002401400100000110B500F0CA
:101D40008BF910BDF0B599B097A001460EC9C068D7
:101D50000AAC0EC40D90142297A105A800F0EAFA6F
:101D600000F0B5F9B82000F060FA00F0ECF90028B6
:101D70007ED1002600F059FA07E0701C80B20646BA
:101D8000FF21F531884200DB03E000F0DCF9002898
:101D9000F3D100BF002600F09AF9B92000F045FA0F
:101DA00007E0701C80B20646FF21F531884200DB57
:101DB00003E000F0C8F90028F3D100BF012000F0D3
:101DC0006BFA0746012000F067FA0490012000F04A
:101DD00063FA0546012000F05FFA0446002000F097
:101DE0005BFA039000F091F9049838184019001933
:101DF000C1B202910299039888427CD10A217943A9
:101E0000049A881800F08CFB7049086080202040FC
:101E100000280AD00A2169436206520E89184842F6
:101E200000F07EFB6A49086006E00A216943081950
:101E300000F076FB6649086066496448006800F077
:101E4000C3FB02D263486149086063495F48006888
:101E500000F0B0FB02D260485C4908605F495C4812
:101E6000006800F0B1FB02D25C485949086000E00C
:101E700088E05B495648006800F09CFB02D2584855
:101E80005349086057495248006800F0A2FA504987
:101E9000086054494D48006800F09BFA4B490860BF
:101EA0004B48006800F056FB02460B46019100903B
:101EB0004DA000F033FE4548006800F04BFB0246A1
:101EC0000B46019100904EA000F028FE40480068AB
:101ED00000F040FB02460B46019100904FA113A871
:101EE00000F02CFE3A48006800F034FB02460B4636
:101EF0000191009000E035E04AA10EA800F01EFE1E
:101F0000022313AA04212820FFF7F1FD02230EAAC1
:101F100006212820FFF7EBFD022204210020FFF715
:101F200057FE042211461020FFF752FE032206211D
:101F30000020FFF74DFE042206211020FFF748FE87
:101F4000052204215020FFF743FE0223384A0421D2
:101F50002020FFF7CCFD0223354A06212020FFF781
:101F6000C6FD1EE033A000F0D9FD02230AAA042119
:101F70000020FFF7BCFD02230AAA06210020FFF77C
:101F8000B6FD0EE02FA000F0C9FD022305AA042132
:101F90000020FFF7ACFD022305AA06210020FFF771
:101FA000A6FD19B0F0BD00002043524320457272D7
:101FB0006F722021212000002053656E736F722004
:101FC0004572726F72202121000000000805002078
:101FD0000405002000806D440000484300001644C2
:101FE000000048C300002041B5B1C7B0CEC2B6C89A
:101FF000CEAA3A2020252E31662020A1E60D0A0027
:10200000B5B1C7B0CAAAB6C8CEAA3A2020252E318B
:10201000662020252552480D0A000000252E316635
:1020200020000000252E31662025255248000000A2
:102030003D000020435243204572726F72202121DF
:102040000D0A000053656E736F72204572726F72D5
:102050002021210D0A0000001CB501218804FEF793
:10206000BEFD03204003009001216846017181718B
:102070000021C171032141716946A248FEF7FCF9B4
:10208000032149039F48FEF774FA1CBD1CB50120CB
:1020900080030090002168460171012181710021B7
:1020A000C17169469748FEF7E7F91CBD1CB50120D0
:1020B0008003009001216846017181710021C17186
:1020C0000121417169468F48FEF7D6F91CBD10B554
:1020D000FFF7ECFF012189038A48FEF74AFA012144
:1020E00049038848FEF745FA0E20FFF72EFA012132
:1020F00089038448FEF73FFA0E20FFF726FA0121F4
:1021000049038048FEF737FA10BD10B5FFF7CEFF40
:10211000012149037B48FEF72EFA01218903794802
:10212000FEF729FA0E20FFF710FA0121490375483E
:10213000FEF71FFA0E20FFF708FA01218903714804
:10214000FEF717FA10BD10B50024012149036D48B0
:10215000FEF711FA012189036A48FEF70AFAFFF730
:1021600095FF0E20FFF7F1F9012149036548FEF7BD
:1021700000FA0E20FFF7E9F90AE0601CC4B2FA2C5D
:1021800003DDFFF7C2FF012010BD0120FFF7DDF9DD
:102190005C48008A01218903084080120028ECD1A4
:1021A00049105848FEF7E7F90A20FFF7CEF900205A
:1021B000EAE710B5012149035248FEF7DCF9FFF7C1
:1021C00075FF012189034F48FEF7D5F90F20FFF76E
:1021D000BCF9012149034B48FEF7CBF90F20FFF76B
:1021E000B4F9012149034748FEF7C5F910BD10B500
:1021F000012149034348FEF7BEF9FFF757FF0121CC
:1022000089034048FEF7B5F90F20FFF79EF9012139
:1022100049033C48FEF7ADF90F20FFF796F901217D
:1022200049033848FEF7A7F910BD70B50446FFF71B
:102230003DFF012149033348FEF79DF9002523E0C6
:10224000012149032F48FEF796F980202040C01154
:10225000002805D0012189032A48FEF78AF904E005
:10226000012189032748FEF786F96006040E0F2036
:10227000FFF76BF9012149032248FEF77AF90F2095
:10228000FFF763F9681CC5B2082DD9DB01214903AA
:102290001C48FEF770F970BD70B505460024FFF7C5
:1022A000F5FE00261DE0012149031648FEF763F9FB
:1022B0003220FFF74AF9012149031248FEF759F984
:1022C0003220FFF742F96006040E0E48008A012111
:1022D000890308408012002801D0601CC4B2701C21
:1022E000C6B2082EDFDB012149030648FEF743F999
:1022F000002D02D1FFF77BFF01E0FFF75AFF2046D8
:1023000070BD00000004004830B50B4601460020B7
:102310002022012409E00D46D5409D4205D31D46EB
:102320009540491B2546954040191546521E002DE3
:10233000F1DC30BD03460B439B0703D009E008C91D
:10234000121F08C0042AFAD203E00B780370401C65
:10235000491C521EF9D27047024670B54A40D30F4D
:10236000DB0740002DD04A002AD0010E140E0002D7
:1023700012020919400A520A8418E501044654431E
:10238000000A120A2E045043A4194219200CC54316
:10239000AA18120C0125AD03521C521912047F39E0
:1023A000240400D0521C104301D44000491EC2B284
:1023B0000C06C0092018401C4008802A02D003E007
:1023C000002070BD40084000002900DA00201843BA
:1023D00070BD70B502464A40D50F40004A00ED0777
:1023E00040085208002814D0002A12D0C40DD30D82
:1023F00041020120C0055202490A520AE41A091892
:1024000012187D34914201D3641C00E04900002C75
:1024100001DA002070BD0023914201D3891A0343E1
:10242000400849000028F7D100290AD0914202D182
:102430000121C90705E0914201D2012101E00121FA
:10244000C943E005C018401900F0F8F870BD00005D
:10245000F0B51FB488B00B99099800244840099939
:10246000C00F490049080991C0070B990090490025
:1024700049080B9109990898A64608431CD00B9966
:102480000A98084318D0099801244000420D4800DA
:10249000410D099824050003000B204309900B9877
:1024A0000003000B20430B9050181C4940180022D9
:1024B00001901446104605E0002001460DB0F0BD25
:1024C000032801DA034600E003239C46C11A0AAE42
:1024D0000AE05F0008ADED5B4F00F75B7D4300272E
:1024E000AA187C41491C5B1E6145F2DD410004AB2A
:1024F0005A522104120C0A43240C401C0828DFDB2A
:10250000019802900099704601910090059B049AF1
:102510000799069800F0E0F8D0E700000DFCFFFFF7
:10252000C217C10F504010B54018CA0796230021AA
:1025300000F08CF810BD00000EB505490291002195
:1025400000910A460B46019100F0C6F803B000BDA9
:1025500033040000C20FD207400040080BD0C10D69
:102560000723DB01C91840020905400A1143C208CC
:10257000400711437047002001467047CB0FDB072F
:10258000490010B5490802460A4307D00A0D07243E
:102590000903E401090B121B002A01DC002010BD15
:1025A000C900440F0C43C100E018D205801800F0A8
:1025B00045F810BD0122D207002800DB101A0029BF
:1025C00000DB511A814270470122D207002800DB4C
:1025D000101A002900DB511A88427047F0B51FB469
:1025E0000646002082B005464024019100901BE081
:1025F000019922460F46304600F040FA049A059BA6
:10260000801A994110D310461946224600F026FA46
:10261000361A8F410197224601200021009F00F0C9
:102620001DFA38184D4100902046641E0028DFDC5A
:10263000019B00982946324607B0F0BD002904DA14
:10264000401C490001D140084000704770B400248C
:10265000050C05D11024000402D1002921D0112439
:10266000050E01D100020834050F01D10001241D1F
:10267000850F01D18000A41C002801DB4000641CF0
:10268000002908D020252E1B0D46F540A14000D082
:1026900001212943084301061B1B000ADB1D02D54B
:1026A000002070BC7047DB05181880180029F8DA84
:1026B000401C4900F5D170BC40084000704710B57F
:1026C000002B08DA0024401C614192185B411A4338
:1026D00001D14008400010BDF0B51FB482B00546DE
:1026E0000C0003D0084600F03DFA02E000F03AFA90
:1026F0002030024600902146284600F0AFF9049BA6
:10270000059A04460F4618431143084314D018464F
:1027100010431BD0009840210A1A1846059900F072
:10272000ADF905460E46009A0599049800F096F911
:10273000084305D0012004E02046394607B0F0BD2B
:102740000020C11705430E432C43374300990E98D0
:102750006305401A7905E40A00220C43FD0A0A3099
:1027600002D500200146E9E70105101969410C9CDA
:102770000D9D00196941FFF7A2FFDFE7F0B507469D
:102780000846584087B0C00F049048000E465900D4
:1027900040084908BC1A884105D2384631461E46D1
:1027A00017460B4602465800400810434CD0300DE7
:1027B000039040055900400D490D0590401A0290C4
:1027C000402872DA18030121000B09050843019023
:1027D00004980092002805D00199524200208841B7
:1027E00000920190029840210A1A0199009800F085
:1027F00035F905460C466B4607CB00F050F9C01979
:102800007141039A0E0D0023D71756401A467A409D
:10281000164344D0049A002A2DD0029A012A039A22
:1028200015DC1205C01A914101263605001C7141C4
:10283000D20F059ED2070093019202962A462346A4
:10284000FFF74AFF07B0F0BD38463146FAE71605F4
:10285000224A0F46B218C01AB74101210905001CCF
:102860004F4100187F41114618187941E20F10437B
:102870006D19644113E0E2076D0815436408C2074F
:102880001443039A01261205C01A91413605001C13
:102890007141CE07400830434908C01851412A46CB
:1028A0002346FFF70CFFCDE7FFE704980122400025
:1028B000C117121A00238B4104983146C417381AE5
:1028C000A141EEE730B40124E407634030BC55E792
:1028D00030B40124E407614030BC4FE70000E0FF62
:1028E000F0B50C465C4085B0E40FE40703944C005F
:1028F000002664085900944649080246029622437D
:1029000021D062460A431ED06200570D4A000E03D2
:102910002303550D012402462C492405781B1B0B6B
:10292000360B401823432643614600901C46501A3C
:10293000B44103D30098401C009002E09218009824
:102940005B41002803DA0020014605B0F0BD0020FD
:10295000012109050746864611E064461D46141B01
:10296000B54106D36546521BB341744607430C4339
:10297000A646CD0740084908284392185B41054602
:102980000D43EAD11046184313D060461946504013
:102990007140084306D06046101AB34106D20122A6
:1029A000002306E000220123DB0702E00122D243DC
:1029B0005310009874460105381C6141029C039D28
:1029C00000196941FFF77BFEBFE70000FD0300002F
:1029D0004A0009030123090B1B0519430A4B10B5D3
:1029E000520D9A4202DA0020014610BD064B3433E4
:1029F0009A4203DC9A1A00F041F810BD034BD2183A
:102A000000F02CF810BD0000FF030000CDFBFFFF1D
:102A100010B5002904DB0124E40740428C41214623
:102A2000002B04DB1C460123DB075242A3419942E1
:102A300000D1904210BD0000064C0125064E05E075
:102A4000E36807CC2B430C3C98471034B442F7D3CF
:102A5000FDF73AFB98400008B840000810B5202A5E
:102A600004DB0146203A9140002010BD9140202314
:102A70009C1A0346E3401943904010BD10B5202A2C
:102A800004DB0846203AD040002110BD0B46D3405D
:102A9000D0402024A21A91400843194610BD10B519
:102AA000202A06DBCB170846203A1041C1170B43FA
:102AB00006E00B461341D0402024A21A914008435F
:102AC000194610BD70B58C180578401C6B075B0F5C
:102AD00001D10378401C2A1106D10278401C03E082
:102AE00006780E70401C491C5B1EF9D12B0705D4DB
:102AF0000023521E0DD40B70491CFAE70378401CCA
:102B0000CB1A921C03E01D780D70491C5B1C521EF1
:102B1000F9D5A142D8D3002070BD00000FB410B584
:102B200003A9044B044A029800F0FCF810BC08BC4E
:102B300004B01847D91400080C0500200FB410B5D4
:102B400004A9074B02AA039800F0ECF8044602A976
:102B5000002000F083FC204610BC08BC04B01847DD
:102B60005D3400082021020C01D010211046020A19
:102B700001D010460839020901D01046091F820809
:102B800001D01046891E420801D0881E7047081ADD
:102B9000704702E008C8121F08C1002AFAD1704726
:102BA0007047002001E001C1121F002AFBD17047CD
:102BB000F0B51FB486B00998089A030D00210243AE
:102BC00014D05148514A181850430514119801283F
:102BD00010981AD0281A401C00264D4F4D490096D7
:102BE00001910490002812DA444211E01198012466
:102BF00049A3012801D11098C1430698119A846015
:102C00000360C26041600BB0F0BD4042E4E704469F
:102C1000210500203F4A001C51410391029012E01F
:102C2000E00707D032463B4601990098FFF710FCB9
:102C30000191009032463B4610461946FFF708FCCA
:102C400006460F466410002CEAD10498039B002826
:102C5000029A0999089806DAFFF7FAFB019B009A95
:102C6000FFF7F6FB05E0FFF73BFE019B009AFFF73D
:102C700037FE04460E460022284BFFF7C9FE03D854
:102C80000020C043014607E00022254B2046314684
:102C9000FFF774FDFFF79CFE102409E0002C0ADB0F
:102CA0000A220023FFF79AFC079B30321A55641E54
:102CB00002460A43F2D11122641C079B121B1C1905
:102CC000119B012B03D0012308430ED10AE00843D6
:102CD00004D0112010900020119077E71098151A59
:102CE0006D1E0BE01098824202DD00236D1C03E094
:102CF000824201DA00236D1E002BEED00698119956
:102D00008260C16030C07EE701FCFFFF104D000013
:102D1000000014400000F03F300000000000F043CD
:102D20000000E03FFFB597B00646002518E22528D1
:102D300077D100242746FD49049400E00443761C23
:102D400032780120203A90400842F7D130782A2882
:102D50000ED00222307801463039092916D804995C
:102D60000A235943303940181443761C0490F1E784
:102D7000189802C804911890002904DA0120400331
:102D800004434842049002200443761C30782E28E5
:102D900014D1042004437078761C2A2809D118988D
:102DA000761C80C8189009E00A214F43303FC719AC
:102DB000761C3078014630390929F5D930786C28ED
:102DC00010D006DC4C281AD068280ED06A2817D1FB
:102DD00004E0742813D07A2812D110E001204005B5
:102DE00004430CE00121090501E0032109050C431E
:102DF0007178814203D1012000052418761C761CCD
:102E00003078119066280BD013DC58287DD009DC6F
:102E100000287BD04528F6D04628F4D047281AD180
:102E2000A5E118E0632835D0642870D0652812D158
:102E30009DE170286CD008DC6728F1D069287BD030
:102E40006E280DD06F2806D1BAE073282ED07528D1
:102E500071D0782859D01A9A199990476D1C7EE143
:102E60006002400F022809D003280DD004281898CA
:102E700001680DD00D60001D189070E11898EA17D8
:102E800001680D604A60F6E7189801680D80F2E766
:102E90000D70F0E718986A4601781172001D1890BD
:102EA0000020507202A80090012005E0189802C886
:102EB000189000200091C04361070DD5002101E06A
:102EC0000199491C0191B94212DA8142F8DB009A5A
:102ED000515C0029F4D10BE0002101E00199491C6B
:102EE00001918142FADB019A0099895C0029F5D1B0
:102EF000019904981A9B471A21463846199A00F0FE
:102F000097FA0199401945180BE04FE02CE113E0C6
:102F10004EE0009800990078491C00911A9A19997E
:102F200090470198401E0190401CF2D1214638463E
:102F30001A9B199A10E137E00A20002100900191B4
:102F40006002410F022907D0189A01CA1892C217CD
:102F50009446032908D00AE01898C01DC108C9008A
:102F600005C91891944607E000B2C2179446042997
:102F700002D140B2C1178C4600226146944506DA60
:102F80000A460021404291418C462D2102E0210554
:102F900004D52B216A461173012103E0E10701D01A
:102FA0002021F7E7029155E00A200AE0102008E00E
:102FB000102000900021042004430191082703E021
:102FC00008200021019100906002410F022907D0E2
:102FD000189A01CA189200229446032908D008E0E2
:102FE0001898C01DC108C90005C91891944603E08E
:102FF00080B2042900D1C0B200210291210729D555
:103000001199702906D0009A1021019B4A401A4359
:1030100005D00EE040216A461173012108E06146A7
:10302000014306D030216A46117311995173022170
:103030000291009A0821019B4A401A430AD1614635
:10304000014301D1610705D530216A461173012181
:103050007F1E02911199582904D035A10E910DA916
:103060000D910DE037A1F9E76146019B009AFFF74A
:10307000B5FA0E9B8C469B5C0D9A521E0D921370F6
:1030800061460143F0D10D9805A9081A203001903E
:10309000600703D501200004844300E00127019864
:1030A000874201DD381A00E00020019900904118A4
:1030B000029809180498401A0490E00306D42146A7
:1030C0001A9B199A049800F0B3F94519002706E0F5
:1030D00003A81A9AC05D199990476D1C7F1C02982D
:1030E0008742F5DBE0030CD521461A9B199A049818
:1030F00000F09EF9451904E01A9A3020199990477A
:103100006D1C0099481E00900029F5DC08E00D9820
:103110000D990078491C0D911A9A199990476D1CC8
:103120000199481E01900029F1DC63E109280100A2
:10313000303132333435363738396162636465662D
:1031400000000000303132333435363738394142EF
:10315000434445460000000000F05AF94519761C2A
:103160003078002800D0E2E528461BB0F0BD6007AB
:1031700000D406271898C01DC108C90048680A680D
:103180000831C30FDB071891190001D09CA108E09A
:10319000210501D59BA104E0E10701D09AA100E03F
:1031A0009AA1430011985B08109165280CD006DCA9
:1031B000452809D046281DD0472841D141E066283E
:1031C00018D067283CD13CE00021112F01DB1120F1
:1031D00000E0781C0191009008A911A8FFF7E8FC15
:1031E000139905910021119A15927F1C129801974D
:1031F000009150E00120C00703900120019008A930
:10320000009711A8FFF7D4FC139A14990592002295
:10321000119B009212981593059A0192002901D0F2
:10322000104602E0791C40180190381A01D5019827
:1032300004E04042401E0090781C0190C01B0290A8
:1032400043E0012F00DA01270021112F01DD1120B9
:1032500000E038460191009008A911A8FFF7A8FCEA
:1032600013990591119A00211298159200910197D6
:1032700021070CD40599B94201DB019900E00191C5
:10328000012904DD159A491E515C302906D0B84247
:1032900001DA011D05DA0121029115E00199491EAB
:1032A000EDE7002805DC0099411800910199091A01
:1032B00003E0019A411C914200DD01910099401AFE
:1032C000401C02900120C0070390200706D40299F9
:1032D0000198814202DB0020C04302900020694631
:1032E000C87707AF012103980337C907884224D064
:1032F000022011902B201290039800280CDA4042F3
:1033000003902D20129007E00A210398FEF7FCFF9E
:1033100030317F1E039039701199481E1190002999
:10332000F2DC03980028EFD1791E129808703078EB
:10333000202108404530BF1E387006A8C01BC01DA4
:10334000039010980078002800D0012001994118BE
:103350000298C0170918039809180498401A401ECB
:103360000490E00306D421461A9B199A049800F0B1
:103370005FF8451910980078002803D01A9A199917
:1033800090476D1CE00324D521461A9B199A049896
:1033900000F04EF845191CE00098002807DB009962
:1033A0000598884203DD1598405C199901E0199948
:1033B00030201A9A904700986D1C401C009002988B
:1033C000401E0290002804D11A9A2E201999904785
:1033D0006D1C0199481E01900029DDDC05E038785C
:1033E0001A9A7F1C199990476D1C0399481E0390E7
:1033F0000029F4DC21461A9B199A0498ACE60000D7
:103400002D0000002B000000200000000000000044
:10341000F8B5044600251E461746880404D405E086
:1034200039462020B0476D1C641EF9D52846F8BDEA
:10343000FFB50446002581B01E46C80301D53027DC
:1034400000E02027880404D505E038460399B047FA
:103450006D1C641EF9D5284605B0F0BD0A68531CE2
:103460000B60107070470000000000000000002F8B
:10347000000000000700070000147F147F140024E0
:103480002A7F2A120062640813230036495522500D
:1034900000000503000000001C2241000000412242
:1034A0001C000014083E08140008083E080800002C
:1034B00000A0600000080808080800006060000024
:1034C000002010080402003E5149453E0000427FA2
:1034D0004000004261514946002141454B310018EE
:1034E00014127F10002745454539003C4A494930B0
:1034F000000171090503003649494936000649496A
:10350000291E000036360000000056360000000874
:103510001422410000141414141400004122140851
:1035200000020151090600324959513E007C121136
:10353000127C007F49494936003E41414122007FCB
:103540004141221C007F49494941007F0909090185
:10355000003E4149497A007F0808087F0000417F0A
:103560004100002040413F01007F08142241007FBC
:1035700040404040007F020C027F007F0408107F23
:10358000003E4141413E007F09090906003E41518C
:10359000215E007F09192946004649494931000149
:1035A000017F0101003F4040403F001F2040201F9D
:1035B000003F4038403F0063140814630007087060
:1035C000080700615149454300007F414100005513
:1035D0002A552A55000041417F00000402010204DF
:1035E00000404040404000000102040000205454CC
:1035F0005478007F4844443800384444442000381C
:103600004444487F00385454541800087E0901028D
:103610000018A4A4A47C007F080404780000447D62
:103620004000004080847D00007F1028440000009E
:10363000417F4000007C04180478007C0804047872
:1036400000384444443800FC24242418001824245E
:1036500018FC007C0804040800485454542000045A
:103660003F444020003C4040207C001C2040201C67
:10367000003C4030403C004428102844001CA0A0DE
:10368000A07C004464544C4414141414141400001A
:10369000000000000000000000000000000000002A
:1036A00000F80000000000000033300000000010AF
:1036B0000C06100C0600000000000000000040C0D6
:1036C0007840C0784000043F04043F0404000070C8
:1036D00088FC08300000001820FF211E0000F008C0
:1036E000F000E018000000211C031E211E0000F065
:1036F0000888700000001E212324192721101016AD
:103700000E000000000000000000000000000000AB
:1037100000E018040200000000071820400000022A
:103720000418E0000000004020180700000040409E
:1037300080F0804040000202010F01020200000000
:1037400000F0000000000101011F01010100000064
:1037500000000000000080B07000000000000000C9
:103760000000000000000001010101010101000052
:1037700000000000000000303000000000000000E9
:10378000000080601804006018060100000000E0DE
:1037900010080810E000000F102020100F0000108B
:1037A00010F8000000000020203F202000000070E2
:1037B00008080888700000302824222130000030DA
:1037C0000888884830000018202020110E000000D2
:1037D000C02010F8000000070424243F240000F853
:1037E0000888880808000019212020110E0000E038
:1037F000108888180000000F112020110E000038DA
:103800000808C83808000000003F000000000070F1
:10381000880808887000001C222121221C0000E07A
:1038200010080810E0000000312222110F000000F3
:1038300000C0C000000000000030300000000000A8
:103840000080000000000000806000000000000018
:1038500080402010080000010204081020004040B1
:1038600040404040400004040404040404000008F4
:1038700010204080000000201008040201000070A9
:1038800048080808F0000000003036010000C03091
:10389000C828E810E0000718272423140B000000B4
:1038A000C038E0000000203C23020227382008F83E
:1038B000888888700000203F202020110E00C03032
:1038C000080808083800071820202010080008F809
:1038D00008080810E000203F202020100F0008F802
:1038E0008888E8081000203F20202320180008F8CE
:1038F0008888E8081000203F200003000000C03046
:1039000008080838000007182020221E020008F8C6
:1039100008000008F808203F210101213F2000088D
:1039200008F8080800000020203F202000000000C8
:103930000808F8080800C08080807F00000008F8B0
:1039400088C028180800203F20012638200008F8E9
:10395000080000000000203F20202020300008F850
:10396000F800F8F80800203F003F003F200008F86A
:1039700030C00008F808203F200007183F00E01082
:1039800008080810E0000F10202020100F0008F891
:1039900008080808F000203F210101010000E010A4
:1039A00008080810E0000F18242438504F0008F8C9
:1039B000888888887000203F2000030C3020007029
:1039C0008808080838000038202121221C00180827
:1039D00008F8080818000000203F2000000008F840
:1039E00008000008F808001F202020201F00087889
:1039F000880000C83808000007380E010000F808E9
:103A000000F80008F800033C0700073C0300081812
:103A100068808068180820302C03032C3020083878
:103A2000C800C83808000000203F2000000010082F
:103A30000808C83808002038262120201800000077
:103A400000FE020202000000007F40404000000C27
:103A500030C000000000000000010638C000000275
:103A60000202FE000000004040407F000000000015
:103A70000402020204000000000000000000000038
:103A80000000000000008080808080808080000234
:103A90000204000000000000000000000000000020
:103AA0008080808000000019242222223F2008F814
:103AB000008080000000003F112020110E00000057
:103AC000008080800000000E1120202011000000E6
:103AD00000808088F800000E112020103F20000098
:103AE000808080800000001F22222222130000809C
:103AF00080F0888888180020203F202000000000E7
:103B0000808080808000006B94949493600008F81B
:103B1000008080800000203F210000203F200080A6
:103B20009898000000000020203F202000000000A6
:103B300000809898000000C08080807F000008F816
:103B4000000080808000203F24022D3020000008EB
:103B500008F8000000000020203F202000008080A6
:103B6000808080808000203F20003F20003F8080B8
:103B7000008080800000203F210000203F200000C6
:103B8000808080800000001F202020201F00808077
:103B900000808000000080FFA12020110E000000A6
:103BA000008080808000000E112020A0FF80808097
:103BB00080008080800020203F2120000100000044
:103BC0008080808080000033242424241900008019
:103BD00080E0808000000000001F20200000808026
:103BE000000000808000001F202020103F208080E7
:103BF00080000080808000010E3008060100808077
:103C00000080008080800F300C030C300F0000809B
:103C10008000808080000020312E0E3120008080C6
:103C200080000080808080818E70180601000080F6
:103C30008080808080000021302C22213000000014
:103C40000000807C020200000000003F40400000B5
:103C50000000FF00000000000000FF000000000264
:103C6000027C800000000040403F00000000000691
:103C70000101020204040000000000000000AED5B3
:103C800080A83FD300408D142002A1C8DA1281EF32
:103C9000D9F1DB30A4A6AFFF01010101010101014F
:103CA0000101010101010101010101010101010104
:103CB00001010101010101010101010101010101F4
:103CC00001010101010101010101010101010101E4
:103CD00001010101010101010101010101010101D4
:103CE00001010101010101010101010101010101C4
:103CF00001010101010101010101010101010101B4
:103D000001010101010101010101010101010101A3
:103D1000010101010101FFFF00000000000000009F
:103D200000000000000000000000204408001848C7
:103D300028C808284818004040FC4040FC0000F813
:103D40000000FC004040A090888488902040400003
:103D5000004044D820F0ACA8E8B8A8E0000000C0BB
:103D60007C5454545454547C40400000F090909043
:103D7000FC909090F0000000808888888888E8A8EF
:103D8000988C888000000000000000000000000007
:103D9000000000000000FFFF000000000000000025
:103DA00000000000000000000000043E01101109A6
:103DB000053F050911110008180F24140F00000F0A
:103DC00000003F0020222A32223F22322A222000F5
:103DD0000020100F10282423202F282A2C00300F19
:103DE000043D2515150D152D242400000704040499
:103DF0001F242424272038000000000000203F005A
:103E000000000000000000000000000000000000B2
:103E1000000000000000FFFF8080808080808080A4
:103E20008080808080808080808080808080808092
:103E30008080808080808080808080808080808082
:103E40008080808080808080808080808080808072
:103E50008080808080808080808080808080808062
:103E60008080808080808080808080808080808052
:103E70008080808080808080808080808080808042
:103E80008080808080808080808080808080808032
:103E9000808080808080FFFF01010101010101011C
:103EA00001010101010101010101814121216101A2
:103EB0000121E1E101E1E121010101010101012112
:103EC000E12121216101012121E101010101010122
:103ED00001010101010101010101010101C1010112
:103EE00001010101010101010101010101010101C2
:103EF0000101010101010101010121010101010192
:103F000001010101010101010101010101010101A1
:103F1000010101010101FFFF00000000000000009D
:103F2000000000000000000000000F1020241C040E
:103F300000203F013E013F20000000000000002063
:103F40003F22222730000020203F202000001E2595
:103F500025251600001E212121130001011F21210A
:103F6000000000213F22210100001E2121211E000E
:103F7000213F2201013E200021213F202000001E80
:103F800021212113000000000000000000000000BB
:103F9000000000000000FFFF000000000000000023
:103FA00000000000000000000000F0080404040C01
:103FB00000F008040408F000000000000000000009
:103FC00080800000000000000000000000000000F1
:103FD00000000004FC0400000000000C04FC040CC1
:103FE0000004FC040408F0000000000000000000D1
:103FF00000000000000000000000000000000000C1
:1040000000000000000000000000000000000000B0
:10401000000000000000FFFF8080808080808080A2
:10402000808080808080808080808182848484827F
:104030008081828484828180808686808080808066
:104040008583808080808080808080808080808068
:104050008080808487848484868080808487848034
:10406000808487848482818080808080808080803A
:104070008080808080808080808080808080808040
:104080008080808080808080808080808080808030
:10409000808080808080FF00B84000080000002001
:1040A00010050000C42A00089842000810050020EE
:1040B00000040000A22B0008412D01020304041596
:1040C00006070809846CDC02791441101048656CFD
:1040D0006C6F2065766572796F6E65211441514968
:1040E000423A17101010FF109010093F48484444FE
:1040F000444270260444827F012BFF490122FF1CA9
:1041000090523421100A345280708F0808F8081039
:1041100008829A566322528E10088040330C334036
:1041200080251060028C2BFE920132FE180A0404D6
:104130007E01407E42427E024C427E4020491F79F1
:1041400020300C4448507F40407F5048444028096C
:10415000FC242424FC252624081204101040308F4F
:1041600080844C55252525554C80808028090609DA
:1041700009E6F80C04020153041E2E071F302040EC
:1041800001332010100A03050911FF118905C3121C
:10419000E012F072F8073D4428FF11AA44700B8327
:1041A0000138448292927401831E7C44C7017D01D0
:1041B000990562FF9A0102818A010B0136694199D2
:1041C00049FA0101A12A4001212A6D01212A600139
:1041D000791501642ADB010915072ADA01212AD899
:1041E00001212AC0010915072A800101352A06018B
:1041F0000918071CE66620076A86157A861C2A8637
:1042000001180A80808686068686C0C00C0E1C06B1
:1042100006D030764D2907013113601C12FE1301C0
:10422000021009C41820029E63B20E1DFF8181FF97
:10423000F24440300F12FF180923EAAABFAAEA038A
:104240003F0B012DBC808080080115240E0C082A2C
:1042500001013149041D81808081021901B91706CD
:10426000110101090C0E0A14C0012178081E214019
:104270004050215E08012A4DFFFFC1C10409232DD2
:10428000E81580FCF3EFF3FC80FF80EEEEEEF5FB2B
:08429000FF9CBEB6B6883A009F
:04000005080000C12E
:00000001FF
